{
  "contractName": "ERC20Metadata",
  "abi": [
    {
      "inputs": [
        {
          "internalType": "string",
          "name": "tokenURI_",
          "type": "string"
        }
      ],
      "payable": false,
      "stateMutability": "nonpayable",
      "type": "constructor"
    },
    {
      "constant": true,
      "inputs": [],
      "name": "tokenURI",
      "outputs": [
        {
          "internalType": "string",
          "name": "",
          "type": "string"
        }
      ],
      "payable": false,
      "stateMutability": "view",
      "type": "function"
    }
  ],
  "bytecode": "0x608060405234801561001057600080fd5b5060405161035b38038061035b8339818101604052602081101561003357600080fd5b810190808051604051939291908464010000000082111561005357600080fd5b8382019150602082018581111561006957600080fd5b825186600182028301116401000000008211171561008657600080fd5b8083526020830192505050908051906020019080838360005b838110156100ba57808201518184015260208101905061009f565b50505050905090810190601f1680156100e75780820380516001836020036101000a031916815260200191505b506040525050506100fd8161010360201b60201c565b506101c2565b806000908051906020019061011992919061011d565b5050565b828054600181600116156101000203166002900490600052602060002090601f016020900481019282601f1061015e57805160ff191683800117855561018c565b8280016001018555821561018c579182015b8281111561018b578251825591602001919060010190610170565b5b509050610199919061019d565b5090565b6101bf91905b808211156101bb5760008160009055506001016101a3565b5090565b90565b61018a806101d16000396000f3fe608060405234801561001057600080fd5b506004361061002b5760003560e01c80633c130d9014610030575b600080fd5b6100386100b3565b6040518080602001828103825283818151815260200191508051906020019080838360005b8381101561007857808201518184015260208101905061005d565b50505050905090810190601f1680156100a55780820380516001836020036101000a031916815260200191505b509250505060405180910390f35b606060008054600181600116156101000203166002900480601f01602080910402602001604051908101604052809291908181526020018280546001816001161561010002031660029004801561014b5780601f106101205761010080835404028352916020019161014b565b820191906000526020600020905b81548152906001019060200180831161012e57829003601f168201915b505050505090509056fea265627a7a72315820742961e567178d293d7fc1de36a250ccf5ed99b73ab5c24dd5bf329f245d874964736f6c634300050b0032",
  "source": "pragma solidity ^0.5.0;\n\nimport \"../../token/ERC20/IERC20.sol\";\n\n/**\n * @title ERC-1047 Token Metadata\n * @dev See https://eips.ethereum.org/EIPS/eip-1046\n * @dev {tokenURI} must respond with a URI that implements https://eips.ethereum.org/EIPS/eip-1047\n */\ncontract ERC20Metadata {\n    string private _tokenURI;\n\n    constructor (string memory tokenURI_) public {\n        _setTokenURI(tokenURI_);\n    }\n\n    function tokenURI() external view returns (string memory) {\n        return _tokenURI;\n    }\n\n    function _setTokenURI(string memory tokenURI_) internal {\n        _tokenURI = tokenURI_;\n    }\n}\n",
  "sourcePath": "/Users/admin/Documents/projects/rapid/libraries/contracts/contracts/drafts/ERC1046/ERC20Metadata.sol",
  "compiler": {
    "name": "solc",
    "version": "0.5.11+commit.c082d0b4.Emscripten.clang"
  },
  "schemaVersion": "3.0.16",
  "updatedAt": "2019-10-07T11:05:30.074Z",
  "devdoc": {
    "details": "See https://eips.ethereum.org/EIPS/eip-1046{tokenURI} must respond with a URI that implements https://eips.ethereum.org/EIPS/eip-1047",
    "methods": {},
    "title": "ERC-1047 Token Metadata"
  },
  "userdoc": {
    "methods": {}
  }
}